:020000040800F2
:10000000005000206D0B0008090B0008110B0008C0
:10001000190B0008210B0008290B00080000000044
:10002000000000000000000000000000310B00088C
:100030003D0B000800000000490B0008550B0008AC
:10004000B50B0008B50B0008B50B0008B50B000890
:10005000B50B0008B50B0008B50B0008B50B000880
:10006000B50B0008B50B0008B50B0008B50B000870
:10007000B50B0008B50B0008B50B0008B50B000860
:10008000B50B0008B50B0008B50B0008B50B000850
:10009000B50B0008B50B0008B50B0008B50B000840
:1000A000B50B0008B50B0008B50B0008B50B000830
:1000B000B50B0008B50B0008B50B0008B50B000820
:1000C000B50B0008B50B0008B50B0008B50B000810
:1000D000B50B0008B50B0008B50B0008B50B000800
:1000E000B50B0008B50B0008B50B000800000000B8
:1000F0000000000000000000000000000000000000
:0C01000000000000000000005FF808F1A3
:10010C0010B5054C237833B9044B13B10448AFF345
:10011C0000800123237010BD14000020000000009B
:10012C00D824000808B5034B1BB103490348AFF3AF
:10013C00008008BD0000000018000020D824000832
:10014C0080B500AF00F032FD00F038F800F0A4F8F4
:10015C0000F070F8154B164A9A60144B4FF48062FD
:10016C009A81124B124A1A60104B4FF480529A80AB
:10017C000E4B0F4A1A610D4B4FF400629A820B4BD7
:10018C000C4A9A61094800F0CDF80121074800F0AB
:10019C004FF9042300220849044800F009FA03210E
:1001AC00024800F0B3F900BFFDE700BF30000020AB
:1001BC00000C0140500000200000002080B590B0E1
:1001CC0000AF07F1180328220021184602F051F95C
:1001DC003B1D00221A605A609A60DA601A61022391
:1001EC00BB610123BB621023FB6200237B6307F11D
:1001FC001803184600F0BCFF0346002B01D000F09A
:10020C008BF80F237B600023BB600023FB60002373
:10021C003B6100237B613B1D0021184601F02AFA4B
:10022C000346002B01D000F077F800BF4037BD46E5
:10023C0080BD000080B500AF154B164A1A60144BF8
:10024C0000225A60124B00229A60114B0022DA6095
:10025C000F4B00221A610E4B00225A610C4B4FF4CB
:10026C0000729A610A4B00221A62094B00225A62F0
:10027C00074B00229A62064B0A22DA62044801F00C
:10028C0055FB0346002B01D000F046F800BF80BDA3
:10029C00500000200038004080B586B000AF07F158
:1002AC00080300221A605A609A60DA60184B9B6946
:1002BC00174A43F008039361154B9B6903F008033D
:1002CC007B607B6800224FF4A051124800F038FF8D
:1002DC004FF4A053BB600123FB6000233B6102235E
:1002EC007B6107F1080319460A4800F0A5FD4FF49D
:1002FC000063BB600023FB6000233B6107F1080334
:10030C001946044800F098FD00BF1837BD4680BD63
:10031C0000100240000C014080B400AF72B600BF68
:10032C0000BFFDE780B582B000AF7860786800F060
:10033C00E3F900220021786800F00EFA7B680022B5
:10034C00DA7700220121786800F006FA00220221F7
:10035C00786800F001FA03220321786800F0FCF9B8
:10036C0000220421786800F0F7F90021786800F089
:10037C0013F80321786800F05BF86421786800F0CA
:10038C00AFF80121786800F0C1F8786800F0A4F9A2
:10039C0000BF0837BD4680BD80B584B000AF786023
:1003AC000B46FB70786800F0A7F90621786800F01E
:1003BC003AFA0346FB73FB78022B1ED0022B28DC87
:1003CC00002B02D0012B0CD023E0FB7B43F020034D
:1003DC00FB73FB7B23F00803FB737B6800225A77CB
:1003EC0018E0FB7B23F02003FB73FB7B23F008035B
:1003FC00FB737B6801225A770CE0FB7B23F0200314
:10040C00FB73FB7B43F00803FB737B6802225A7778
:10041C0000E000BFFB7B1A460621786800F09CF9CF
:10042C00786800F059F900BF1037BD4680BD000058
:10043C0080B584B000AF78600B46FB70786800F034
:10044C005BF90621786800F0EEF90346FB73FB7844
:10045C00032B37D801A252F823F000BF790400080F
:10046C0091040008A9040008C1040008FB7B23F0D8
:10047C000403FB73FB7B23F00203FB737B680022FA
:10048C001A7720E0FB7B23F00403FB73FB7B43F028
:10049C000203FB737B6801221A7714E0FB7B43F0A9
:1004AC000403FB73FB7B23F00203FB737B680222C8
:1004BC001A7708E0FB7B43F00603FB737B6803228F
:1004CC001A7700E000BFFB7B1A460621786800F023
:1004DC0043F9786800F000F900BF1037BD4680BDC5
:1004EC0080B582B000AF78600B46FB70786800F086
:1004FC0003F9FB781A460521786800F02DF9786825
:10050C0000F0EAF800BF0837BD4680BD80B584B066
:10051C0000AF78600B46FB700021786800F083F91F
:10052C000346FB73FB78032B37D801A252F823F058
:10053C004D0500085D0500087305000891050008CD
:10054C00FB7B23F00203FB737B6800229A7725E088
:10055C00786800F0D1F8FB7B43F00203FB737B68F7
:10056C0001229A771AE0786800F0B6F8FB7B43F02A
:10057C000203FB73FB7B23F00103FB737B680222FA
:10058C009A770BE0786800F0A7F8FB7B43F0030345
:10059C00FB737B6803229A7700E000BFFB7B1A4653
:1005AC000021786800F0D8F800BF1037BD4680BD38
:1005BC0080B586B000AFF860B96011461A460B469C
:1005CC00FB711346BB71F86800F096F80721F868C8
:1005DC0000F056F90221F86800F025F90346FB7586
:1005EC00FB79012202FA03F35AB297F9173013433D
:1005FC005BB2FB75FB7D1A460221F86800F0ACF883
:10060C00FB79052B60D801A252F823F031060008C3
:10061C004B06000865060008810600089D060008C8
:10062C00B90600080523BA680A21F86800F0BFF87B
:10063C00BB791A461121F86800F08EF845E00523C5
:10064C00BA680B21F86800F0B2F8BB791A4612218F
:10065C00F86800F081F838E0BB681B781A460C216A
:10066C00F86800F079F8BB791A461321F86800F0A5
:10067C0073F82AE0BB681B781A460D21F86800F065
:10068C006BF8BB791A461421F86800F065F81CE089
:10069C00BB681B781A460E21F86800F05DF8BB7930
:1006AC001A461521F86800F057F80EE0BB681B7865
:1006BC001A460F21F86800F04FF8BB791A4616213C
:1006CC00F86800F049F800E000BFF86800F004F8A2
:1006DC0000BF1837BD4680BD80B582B000AF7860D2
:1006EC007B6898687B689B890122194600F028FD7D
:1006FC0000BF0837BD4680BD80B582B000AF7860C2
:10070C007B6898687B689B890022194600F018FD6D
:10071C0000BF0837BD4680BD80B582B000AF7860A1
:10072C007B6818687B689B880022194600F008FDDE
:10073C0000BF0837BD4680BD80B582B000AF786081
:10074C007B6818687B689B880122194600F0F8FCCE
:10075C0000BF0837BD4680BD80B584B000AF78605F
:10076C000B46FB701346BB70FB7843F02003DBB2E7
:10077C003B73BB787B737868FFF7CEFF7B68986917
:10078C0007F10C014FF4FA63022201F053F900BF98
:10079C007B689B69184601F053FD0346012BF7D18A
:1007AC007868FFF7C9FF00BF1037BD4680BD80B524
:1007BC0086B000AFF8607A601A460B46FB7213469F
:1007CC003B81FB7A43F02003DBB23B75F868FFF703
:1007DC00A3FFFB68986907F114014FF4FA63012237
:1007EC0001F028F900BFFB689B69184601F028FD51
:1007FC000346012BF7D1FB6898693A894FF4FA63E9
:10080C00796801F017F900BFFB689B69184601F085
:10081C0017FD0346012BF7D1F868FFF78DFF00BFDA
:10082C001837BD4680BD80B584B000AF78600B46EC
:10083C00FB700023FB737868FFF76EFF7B68986989
:10084C00F91C4FF4FA63012201F0F4F800BF7B6845
:10085C009B69184601F0F4FC0346012BF7D17B6829
:10086C00986907F10F014FF4FA63012201F026FA9F
:10087C007868FFF761FFFB7B18461037BD4680BDDB
:10088C0080B588B000AF78600B46FB70FB78072B07
:10089C0005D1002207217868FFF75EFFA8E0FB78FE
:1008AC00172B05D1112217217868FFF755FF9FE010
:1008BC00082200217868FFF74FFF3F22012178685A
:1008CC00FFF74AFF032202217868FFF745FF032256
:1008DC0003217868FFF740FF032204217868FFF7B3
:1008EC003BFF022205217868FFF736FF0E22062116
:1008FC007868FFF731FF002207217868FFF72CFF9B
:10090C00002208217868FFF727FF00220921786868
:10091C00FFF722FF384A07F1180392E8030018602A
:10092C000433197007F1180205230A217868FFF7C0
:10093C003EFF324A07F1100392E8030018600433BB
:10094C00197007F1100205230B217868FFF72FFFB0
:10095C00C3220C217868FFF7FFFEC4220D217868B2
:10096C00FFF7FAFEC5220E217868FFF7F5FEC622C6
:10097C000F217868FFF7F0FE1F4A07F1080392E891
:10098C00030018600433197007F1080205231021C5
:10099C007868FFF70CFF002211217868FFF7DCFE66
:1009AC00002212217868FFF7D7FE00221321786805
:1009BC00FFF7D2FE002214217868FFF7CDFE00224B
:1009CC0015217868FFF7C8FE002216217868FFF71A
:1009DC00C3FE112217217868FFF7BEFE00221C21EE
:1009EC007868FFF7B9FE00221D217868FFF7B4FE86
:1009FC0000BF2037BD4680BDF0240008F824000855
:100A0C0080B485B000AF154B9B69144A43F00103C9
:100A1C009361124B9B6903F00103BB60BB680F4BE6
:100A2C00DB690E4A43F08053D3610C4BDB6903F056
:100A3C0080537B607B680A4B5B68FB60FB6823F030
:100A4C00E063FB60FB6843F08063FB60044AFB6877
:100A5C00536000BF1437BD4680BC70470010024085
:100A6C000000014080B588B000AF786007F110033A
:100A7C0000221A605A609A60DA607B681B681C4A14
:100A8C00934231D11B4BDB691A4A43F48043D36147
:100A9C00184BDB6903F48043FB60FB68154B9B69C7
:100AAC00144A43F008039361124B9B6903F008034B
:100ABC00BB60BB684FF420433B6100237B61002388
:100ACC00BB6107F1100319460B4800F0B5F94FF460
:100ADC0080433B6102237B610323FB6107F110031D
:100AEC001946054800F0A8F900BF2037BD4680BD67
:100AFC000038004000100240000C014080B400AFF0
:100B0C0000BFFDE780B400AF00BFFDE780B400AFCD
:100B1C0000BFFDE780B400AF00BFFDE780B400AFBD
:100B2C0000BFFDE780B400AF00BFBD4680BC70477E
:100B3C0080B400AF00BFBD4680BC704780B400AF2E
:100B4C0000BFBD4680BC704780B500AF00F074F8A4
:100B5C0000BF80BD80B400AF00BFBD4680BC7047F5
:100B6C00FFF7F8FF0B480C490C4A002302E0D4585D
:100B7C00C4500433C4188C42F9D3094A094C0023DD
:100B8C0001E013600432A242FBD301F07BFCFFF7BF
:100B9C00D7FA704700000020140000202C25000814
:100BAC0014000020AC000020FEE7000080B500AF70
:100BBC00084B1B68074A43F010031360032000F036
:100BCC0007F90F2000F008F8FFF71AFF002318466A
:100BDC0080BD00BF0020024080B582B000AF7860BD
:100BEC00124B1A68124B1B7819464FF47A73B3FBED
:100BFC00F1F3B2FBF3F3184600F011F90346002BA6
:100C0C0001D001230EE07B680F2B0AD800227968F3
:100C1C004FF0FF3000F0E7F8064A7B6813600023C2
:100C2C0000E0012318460837BD4680BD08000020AF
:100C3C00100000200C00002080B400AF054B1B7886
:100C4C001A46054B1B681344034A136000BFBD468C
:100C5C0080BC704710000020A800002080B400AFBA
:100C6C00024B1B681846BD4680BC7047A80000208C
:100C7C0080B485B000AF78607B6803F00703FB603D
:100C8C000C4BDB68BB60BA684FF6FF031340BB60CC
:100C9C00FB681A02BB68134343F0BF6343F4003391
:100CAC00BB60044ABB68D36000BF1437BD4680BC30
:100CBC00704700BF00ED00E080B400AF044BDB6870
:100CCC001B0A03F007031846BD4680BC704700BFE3
:100CDC0000ED00E080B483B000AF03463960FB71D7
:100CEC0097F90730002B0ADB3B68DAB20C4997F90D
:100CFC0007301201D2B20B4483F800230AE03B68A0
:100D0C00DAB20849FB7903F00F03043B1201D2B2AB
:100D1C000B441A7600BF0C37BD4680BC704700BF31
:100D2C0000E100E000ED00E080B489B000AFF860B5
:100D3C00B9607A60FB6803F00703FB61FB69C3F1E0
:100D4C000703042B28BF0423BB61FB690433062B68
:100D5C0002D9FB69033B00E000237B614FF0FF32BB
:100D6C00BB6902FA03F3DA43BB681A407B699A4009
:100D7C004FF0FF317B6901FA03F3D9437B680B40D9
:100D8C00134318462437BD4680BC704780B582B0EB
:100D9C0000AF78607B68013BB3F1807F01D3012306
:100DAC000FE00A4A7B68013B53600F214FF0FF3084
:100DBC00FFF790FF054B00229A60044B07221A6044
:100DCC00002318460837BD4680BD00BF10E000E088
:100DDC0080B582B000AF78607868FFF749FF00BF3C
:100DEC000837BD4680BD80B586B000AF0346B960FC
:100DFC007A60FB7300237B61FFF75EFF78617A6892
:100E0C00B9687869FFF790FF024697F90F301146E1
:100E1C001846FFF75FFF00BF1837BD4680BD80B591
:100E2C0082B000AF78607868FFF7B0FF03461846D1
:100E3C000837BD4680BD000080B48BB000AF786031
:100E4C00396000237B6200233B6269E101227B6AEB
:100E5C0002FA03F3FB613B681B68FA691340BB6140
:100E6C00BA69FB699A4240F058813B685B689A4AC0
:100E7C0093425ED0984A934275D8984A934258D080
:100E8C00964A93426FD8964A934252D0944A9342D0
:100E9C0069D8944A93424CD0924A934263D8924A6E
:100EAC00934246D0904A93425DD8122B2AD8122BEB
:100EBC0059D801A252F823F03F0F0008190F00086F
:100ECC002B0F00086D0F0008730F0008730F00083C
:100EDC00730F0008730F0008730F0008730F0008DE
:100EEC00730F0008730F0008730F0008730F0008CE
:100EFC00730F0008730F0008730F0008210F000810
:100F0C00350F0008794A934213D02CE03B68DB681C
:100F1C003B6229E03B68DB6804333B6224E03B68BE
:100F2C00DB6808333B621FE03B68DB680C333B62D9
:100F3C001AE03B689B68002B02D104233B6213E050
:100F4C003B689B68012B05D108233B627B68FA69DF
:100F5C001A6109E008233B627B68FA695A6103E075
:100F6C0000233B6200E000BFBB69FF2B01D87B680C
:100F7C0001E07B6804337B61BB69FF2B02D87B6A81
:100F8C009B0002E07B6A083B9B003B617B691A6813
:100F9C000F213B6901FA03F3DB431A40396A3B69C1
:100FAC0001FA03F31A437B691A603B685B6803F030
:100FBC008053002B00F0B1804D4B9B694C4A43F0A1
:100FCC00010393614A4B9B6903F00103BB60BB684F
:100FDC00484A7B6A9B08023352F82330FB607B6AD9
:100FEC0003F003039B000F2202FA03F3DB43FA68BE
:100FFC001340FB607B68404A934213D07B683F4AA6
:10100C0093420DD07B683E4A934207D07B683D4AA1
:10101C00934201D1032306E0042304E0022302E0FF
:10102C00012300E000237A6A02F00302920093404D
:10103C00FA681343FB602F497B6A9B080233FA68FA
:10104C0041F823203B685B6803F48013002B06D027
:10105C002D4B9A682C49BB6913438B6006E02A4BD5
:10106C009A68BB69DB43284913408B603B685B681B
:10107C0003F40013002B06D0234BDA682249BB691A
:10108C001343CB6006E0204BDA68BB69DB431E4997
:10109C001340CB603B685B6803F40033002B06D035
:1010AC00194B5A681849BB6913434B6006E0164B41
:1010BC005A68BB69DB43144913404B603B685B685F
:1010CC0003F48033002B21D00F4B1A680E49BB69F7
:1010DC0013430B6021E000BF000032100000311000
:1010EC00000022100000211000001210000011104E
:1010FC00001002400000014000080140000C0140BB
:10110C000010014000140140000401400B4B1A6810
:10111C00BB69DB43094913400B607B6A01337B627B
:10112C003B681A687B6A22FA03F3002B7FF48EAEBD
:10113C0000BF00BF2C37BD4680BC70470004014087
:10114C0080B483B000AF78600B467B8013467B7015
:10115C007B78002B03D07A887B681A6103E07B884C
:10116C001A047B681A6100BF0C37BD4680BC7047FF
:10117C0080B586B000AF78607B68002B01D101236D
:10118C0072E27B681B6803F00103002B00F0878080
:10119C00924B5B6803F00C03042B0CD08F4B5B68F9
:1011AC0003F00C03082B12D18C4B5B6803F48033D7
:1011BC00B3F5803F0BD1894B1B6803F40033002B34
:1011CC006CD07B685B68002B68D101234CE27B6898
:1011DC005B68B3F5803F06D1804B1B687F4A43F4B4
:1011EC00803313602EE07B685B68002B0CD17B4B4B
:1011FC001B687A4A23F480331360784B1B68774A58
:10120C0023F4802313601DE07B685B68B3F5A02F8B
:10121C000CD1724B1B68714A43F4802313606F4BE3
:10122C001B686E4A43F4803313600BE06B4B1B68F6
:10123C006A4A23F480331360684B1B68674A23F4B3
:10124C00802313607B685B68002B13D0FFF706FDCF
:10125C00386108E0FFF702FD02463B69D31A642BA4
:10126C0001D9032300E25D4B1B6803F40033002B10
:10127C00F0D014E0FFF7F2FC386108E0FFF7EEFC69
:10128C0002463B69D31A642B01D90323ECE1534B7F
:10129C001B6803F40033002BF0D100E000BF7B6827
:1012AC001B6803F00203002B63D04C4B5B6803F00C
:1012BC000C03002B0BD0494B5B6803F00C03082B81
:1012CC001CD1464B5B6803F48033002B16D1434B87
:1012DC001B6803F00203002B05D07B681B69012BF4
:1012EC0001D00123C0E13D4B1B6823F0F8027B6861
:1012FC005B69DB00394913430B603AE07B681B697F
:10130C00002B20D0364B01221A60FFF7A7FC386166
:10131C0008E0FFF7A3FC02463B69D31A022B01D964
:10132C000323A1E12D4B1B6803F00203002BF0D02B
:10133C002A4B1B6823F0F8027B685B69DB002749AA
:10134C0013430B6015E0264B00221A60FFF786FC56
:10135C00386108E0FFF782FC02463B69D31A022B86
:10136C0001D9032380E11D4B1B6803F00203002B02
:10137C00F0D17B681B6803F00803002B3AD07B6824
:10138C009B69002B19D0174B01221A60FFF766FCE2
:10139C00386108E0FFF762FC02463B69D31A022B66
:1013AC0001D9032360E10D4B5B6A03F00203002BB0
:1013BC00F0D0012000F09CFA1CE00A4B00221A60CD
:1013CC00FFF74CFC38610FE0FFF748FC02463B6925
:1013DC00D31A022B08D9032346E100BF00100240A8
:1013EC000000424280044242924B5B6A03F00203CB
:1013FC00002BE9D17B681B6803F00403002B00F081
:10140C00A6800023FB758B4BDB6903F08053002B0C
:10141C000DD1884BDB69874A43F08053D361854BF0
:10142C00DB6903F08053BB60BB680123FB75824B07
:10143C001B6803F48073002B18D17F4B1B687E4A0A
:10144C0043F480731360FFF709FC386108E0FFF781
:10145C0005FC02463B69D31A642B01D9032303E133
:10146C00754B1B6803F48073002BF0D07B68DB6832
:10147C00012B06D16F4B1B6A6E4A43F001031362BA
:10148C002DE07B68DB68002B0CD16A4B1B6A694A28
:10149C0023F001031362674B1B6A664A23F00403B3
:1014AC0013621CE07B68DB68052B0CD1614B1B6A5B
:1014BC00604A43F0040313625E4B1B6A5D4A43F0BF
:1014CC00010313620BE05B4B1B6A5A4A23F00103C6
:1014DC001362584B1B6A574A23F0040313627B6850
:1014EC00DB68002B15D0FFF7B9FB38610AE0FFF77A
:1014FC00B5FB02463B69D31A41F28832934201D9BB
:10150C000323B1E04B4B1B6A03F00203002BEED01C
:10151C0014E0FFF7A3FB38610AE0FFF79FFB0246DC
:10152C003B69D31A41F28832934201D903239BE0E1
:10153C00404B1B6A03F00203002BEED1FB7D012B09
:10154C0005D13C4BDB693B4A23F08053D3617B686C
:10155C00DB69002B00F08780364B5B6803F00C03D3
:10156C00082B61D07B68DB69022B46D1334B002200
:10157C001A60FFF773FB386108E0FFF76FFB024658
:10158C003B69D31A022B01D903236DE0294B1B684D
:10159C0003F00073002BF0D17B681B6AB3F5803F1E
:1015AC0008D1244B5B6823F400327B689B6821498B
:1015BC0013434B601F4B5B6823F474127B68196AEE
:1015CC007B685B6A0B431B4913434B601B4B01222B
:1015DC001A60FFF743FB386108E0FFF73FFB024658
:1015EC003B69D31A022B01D903233DE0114B1B6835
:1015FC0003F00073002BF0D035E0104B00221A6082
:10160C00FFF72CFB386108E0FFF728FB02463B692B
:10161C00D31A022B01D9032326E0064B1B6803F0D7
:10162C000073002BF0D11EE07B68DB69012B07D126
:10163C00012319E00010024000700040600042429B
:10164C000B4B5B68FB60FB6803F480327B681B6AA6
:10165C009A4206D1FB6803F470127B685B6A9A426B
:10166C0001D0012300E0002318461837BD4680BD89
:10167C000010024080B584B000AF786039607B68A0
:10168C00002B01D10123D0E06A4B1B6803F0070348
:10169C003A689A4210D9674B1B6823F007026549D8
:1016AC003B6813430B60634B1B6803F007033A68FA
:1016BC009A4201D00123B8E07B681B6803F0020357
:1016CC00002B20D07B681B6803F00403002B05D093
:1016DC00594B5B68584A43F4E06353607B681B6862
:1016EC0003F00803002B05D0534B5B68524A43F4BC
:1016FC0060535360504B5B6823F0F0027B689B682F
:10170C004D4913434B607B681B6803F00103002BAE
:10171C0040D07B685B68012B07D1474B1B6803F4F7
:10172C000033002B15D101237FE07B685B68022B13
:10173C0007D1414B1B6803F00073002B09D1012327
:10174C0073E03D4B1B6803F00203002B01D1012316
:10175C006BE0394B5B6823F003027B685B683649AE
:10176C0013434B60FFF77AFAF8600AE0FFF776FA5A
:10177C000246FB68D31A41F28832934201D9032303
:10178C0053E02D4B5B6803F00C027B685B689B009D
:10179C009A42EBD1274B1B6803F007033A689A4235
:1017AC0010D2244B1B6823F0070222493B681343D9
:1017BC000B60204B1B6803F007033A689A4201D078
:1017CC00012332E07B681B6803F00403002B08D074
:1017DC00194B5B6823F4E0627B68DB6816491343A2
:1017EC004B607B681B6803F00803002B09D0124B7D
:1017FC005B6823F460527B681B69DB000E49134362
:10180C004B6000F021F802460B4B5B681B0903F0A0
:10181C000F030A49CB5C22FA03F3094A1360094B04
:10182C001B681846FFF7D8F9002318461037BD4639
:10183C0080BD00BF002002400010024000250008BF
:10184C00080000200C00002080B487B000AF0023FB
:10185C00FB600023BB6000237B6100237B600023C3
:10186C003B611E4B5B68FB60FB6803F00C03042BB5
:10187C0002D0082B03D027E0194B3B6127E0FB6813
:10188C009B0C03F00F03174AD35C7B60FB6803F4DB
:10189C008033002B10D0114B5B685B0C03F0010301
:1018AC00114AD35CBB607B680D4A03FB02F2BB6838
:1018BC00B2FBF3F37B6104E07B680C4A02FB03F39D
:1018CC007B617B693B6102E0054B3B6100BF3B697F
:1018DC0018461C37BD4680BC704700BF0010024044
:1018EC0000127A00102500082025000800093D0090
:1018FC0080B485B000AF78600A4B1B680A4AA2FB23
:10190C0003235B0A7A6802FB03F3FB6000BFFB68EE
:10191C005A1EFA60002BF9D100BF00BF1437BD4628
:10192C0080BC704708000020D34D621080B582B097
:10193C0000AF78607B68002B01D1012376E07B68D7
:10194C005B6A002B08D17B685B68B3F5827F09D09A
:10195C007B680022DA6105E07B6800221A617B68F3
:10196C0000225A617B6800229A627B6893F851309E
:10197C00DBB2002B06D17B68002283F850207868FC
:10198C00FFF770F87B68022283F851207B681B6894
:10199C001A687B681B6822F040021A607B685B68DF
:1019AC0003F482727B689B6803F404431A437B68DC
:1019BC00DB6803F400631A437B681B6903F00203C2
:1019CC001A437B685B6903F001031A437B689B69CC
:1019DC0003F400731A437B68DB6903F038031A4382
:1019EC007B681B6A03F0800342EA03017B689B6AF5
:1019FC0003F400527B681B680A431A607B689B697E
:101A0C001A0C7B681B6802F004025A607B681B6826
:101A1C00DA697B681B6822F40062DA617B68002259
:101A2C005A657B68012283F8512000231846083739
:101A3C00BD4680BD80B588B000AFF860B9603B6032
:101A4C001346FB80FFF70AF9F861FB887B83FB6880
:101A5C0093F85130DBB2012B01D002232AE1BB6891
:101A6C00002B02D0FB88002B01D1012322E1FB6863
:101A7C0093F85030012B01D102231BE1FB680122AA
:101A8C0083F85020FB68032283F85120FB68002266
:101A9C005A65FB68BA681A63FB68FA889A86FB6811
:101AAC00FA88DA86FB6800229A63FB6800229A8720
:101ABC00FB680022DA87FB6800225A64FB6800226C
:101ACC001A64FB689B68B3F5004F0FD1FB681B6869
:101ADC001A68FB681B6822F040021A60FB681B68DE
:101AEC001A68FB681B6842F480421A60FB681B682A
:101AFC001B6803F04003402B07D0FB681B681A6877
:101B0C00FB681B6842F040021A60FB68DB68B3F5A7
:101B1C00006F52D1FB685B68002B02D07B8B012BD2
:101B2C0045D1FB681B6B1A88FB681B68DA60FB6885
:101B3C001B6B9A1CFB681A63FB68DB8E9BB2013B28
:101B4C009AB2FB68DA8632E0FB681B689B6803F08C
:101B5C000203022B12D1FB681B6B1A88FB681B68F3
:101B6C00DA60FB681B6B9A1CFB681A63FB68DB8EE4
:101B7C009BB2013B9AB2FB68DA8618E0FFF76EF86D
:101B8C000246FB69D31A3A689A4203D83B68B3F110
:101B9C00FF3F02D13B68002B09D1FB68012283F87F
:101BAC005120FB68002283F85020032382E0FB685D
:101BBC00DB8E9BB2002BC7D153E0FB685B68002B1C
:101BCC0002D07B8B012B47D1FB681A6BFB681B681F
:101BDC000C3312781A70FB681B6B5A1CFB681A6367
:101BEC00FB68DB8E9BB2013B9AB2FB68DA8633E072
:101BFC00FB681B689B6803F00203022B13D1FB6884
:101C0C001A6BFB681B680C3312781A70FB681B6B21
:101C1C005A1CFB681A63FB68DB8E9BB2013B9AB2C1
:101C2C00FB68DA8618E0FFF719F80246FB69D31A4D
:101C3C003A689A4203D83B68B3F1FF3F02D13B6844
:101C4C00002B09D1FB68012283F85120FB6800228C
:101C5C0083F8502003232DE0FB68DB8E9BB2002B16
:101C6C00C6D1FA693968F86800F0D2FB0346002B3C
:101C7C0002D0FB6820225A65FB689B68002B0AD1B6
:101C8C0000237B61FB681B68DB687B61FB681B685E
:101C9C009B687B617B69FB68012283F85120FB68A0
:101CAC00002283F85020FB685B6D002B01D00123D0
:101CBC0000E0002318462037BD4680BD80B588B0B3
:101CCC0002AFF860B9603B601346FB80FB6893F889
:101CDC005130DBB2012B01D0022304E1FB685B68BD
:101CEC00B3F5827F12D1FB689B68002B0ED1FB6889
:101CFC00042283F85120FA883B6800931346BA6893
:101D0C00B968F86800F0F3F80346ECE0FEF7A6FFBC
:101D1C007861BB68002B02D0FB88002B01D101231A
:101D2C00E1E0FB6893F85030012B01D10223DAE09B
:101D3C00FB68012283F85020FB68042283F85120B1
:101D4C00FB6800225A65FB68BA689A63FB68FA88DC
:101D5C009A87FB68FA88DA87FB6800221A63FB68AB
:101D6C0000229A86FB680022DA86FB6800221A643D
:101D7C00FB6800225A64FB689B68B3F5004F0FD1D7
:101D8C00FB681B681A68FB681B6822F040021A602B
:101D9C00FB681B681A68FB681B6822F480421A6097
:101DAC00FB681B681B6803F04003402B07D0FB68E3
:101DBC001B681A68FB681B6842F040021A60FB68DB
:101DCC00DB68002B70D135E0FB681B689B6803F067
:101DDC000103012B15D1FB681B6803F10C02FB6896
:101DEC009B6B1278D2B21A70FB689B6B5A1CFB6807
:101DFC009A63FB68DB8F9BB2013B9AB2FB68DA8774
:101E0C0018E0FEF72BFF02467B69D31A3A689A4218
:101E1C0003D83B68B3F1FF3F02D13B68002B09D1DB
:101E2C00FB68012283F85120FB68002283F85020C4
:101E3C00032358E0FB68DB8F9BB2002BC4D138E046
:101E4C00FB681B689B6803F00103012B13D1FB6833
:101E5C001B68DA68FB689B6B92B21A80FB689B6B01
:101E6C009A1CFB689A63FB68DB8F9BB2013B9AB2AE
:101E7C00FB68DA8718E0FEF7F1FE02467B69D31A9D
:101E8C003A689A4203D83B68B3F1FF3F02D13B68F2
:101E9C00002B09D1FB68012283F85120FB6800223A
:101EAC0083F8502003231EE0FB68DB8F9BB2002BD2
:101EBC00C6D17A693968F86800F058FA0346002BE5
:101ECC0002D0FB6820225A65FB68012283F851205E
:101EDC00FB68002283F85020FB685B6D002B01D05F
:101EEC00012300E0002318461837BD4680BD80B59D
:101EFC008AB000AFF860B9607A607B8001237B62A6
:101F0C00FEF7ACFE3862FB6893F85130FB77FB6848
:101F1C005B68BB617B88FB82FB7F012B0CD0BB69B0
:101F2C00B3F5827F06D1FB689B68002B02D1FB7F47
:101F3C00042B01D002237FE1BB68002B05D07B680A
:101F4C00002B02D07B88002B01D1012374E1FB68AC
:101F5C0093F85030012B01D102236DE1FB68012273
:101F6C0083F85020FB6893F85130DBB2042B03D07C
:101F7C00FB68052283F85120FB6800225A65FB6838
:101F8C007A689A63FB687A88DA87FB687A889A871A
:101F9C00FB68BA681A63FB687A88DA86FB687A8809
:101FAC009A86FB6800221A64FB6800225A64FB685C
:101FBC001B681B6803F04003402B07D0FB681B68B1
:101FCC001A68FB681B6842F040021A60FB68DB6809
:101FDC00B3F5006F7ED1FB685B68002B02D0FB8AE7
:101FEC00012B6CD1FB681B6B1A88FB681B68DA60D1
:101FFC00FB681B6B9A1CFB681A63FB68DB8E9BB23D
:10200C00013B9AB2FB68DA8659E0FB681B689B6857
:10201C0003F00203022B1BD1FB68DB8E9BB2002B5F
:10202C0016D07B6A012B13D1FB681B6B1A88FB68DB
:10203C001B68DA60FB681B6B9A1CFB681A63FB68F5
:10204C00DB8E9BB2013B9AB2FB68DA8600237B6283
:10205C00FB681B689B6803F00103012B19D1FB681B
:10206C00DB8F9BB2002B14D0FB681B68DA68FB6813
:10207C009B6B92B21A80FB689B6B9A1CFB689A63F1
:10208C00FB68DB8F9BB2013B9AB2FB68DA870123BA
:10209C007B62FEF7E3FD02463B6AD31A3A6B9A4227
:1020AC000DD83B6BB3F1FF3F09D0FB68012283F8DD
:1020BC005120FB68002283F850200323BCE0FB680E
:1020CC00DB8E9BB2002BA0D1FB68DB8F9BB2002B6D
:1020DC009BD182E0FB685B68002B02D0FB8A012B52
:1020EC0071D1FB681A6BFB681B680C3312781A7081
:1020FC00FB681B6B5A1CFB681A63FB68DB8E9BB27C
:10210C00013B9AB2FB68DA865DE0FB681B689B6852
:10211C0003F00203022B1CD1FB68DB8E9BB2002B5D
:10212C0017D07B6A012B14D1FB681A6BFB681B68F8
:10213C000C3312781A70FB681B6B5A1CFB681A6301
:10214C00FB68DB8E9BB2013B9AB2FB68DA860023FC
:10215C007B62FB681B689B6803F00103012B19D1A0
:10216C00FB68DB8F9BB2002B14D0FB681B68DA6812
:10217C00FB689B6BD2B21A70FB689B6B5A1CFB689A
:10218C009A63FB68DB8F9BB2013B9AB2FB68DA87E0
:10219C0001237B62FEF762FD02463B6AD31A3A6B5F
:1021AC009A4203D83B6BB3F1FF3F02D13B6B002B40
:1021BC0009D1FB68012283F85120FB68002283F8C7
:1021CC005020032338E0FB68DB8E9BB2002B9CD1A4
:1021DC00FB68DB8F9BB2002B97D13A6A396BF8689E
:1021EC0000F016F90346002B08D0FB6820225A6534
:1021FC00FB68002283F8502001231DE0FB689B68DC
:10220C00002B0AD100233B61FB681B68DB683B6138
:10221C00FB681B689B683B613B69FB68012283F888
:10222C005120FB68002283F85020FB685B6D002B6B
:10223C0001D0012300E0002318462837BD4680BD9D
:10224C0080B483B000AF78607B6893F85130DBB218
:10225C0018460C37BD4680BC7047000080B588B06E
:10226C0000AFF860B9603B601346FB71FEF7F6FCFB
:10227C000246BB6A9B1A3A681344FB61FEF7EEFCFC
:10228C00B861394B1B685B011B0DFA6902FB03F348
:10229C007B6154E03B68B3F1FF3F50D0FEF7DEFCAE
:1022AC000246BB69D31AFA699A4202D9FB69002B20
:1022BC003DD1FB681B685A68FB681B6822F0E00282
:1022CC005A60FB685B68B3F5827F11D1FB689B6831
:1022DC00B3F5004F04D0FB689B68B3F5806F07D152
:1022EC00FB681B681A68FB681B6822F040021A60C6
:1022FC00FB689B6AB3F5005F0FD1FB681B681A681B
:10230C00FB681B6822F400521A60FB681B681A6891
:10231C00FB681B6842F400521A60FB68012283F8C8
:10232C005120FB68002283F85020032317E07B69BF
:10233C00002B01D10023FB617B69013B7B61FB68B6
:10234C001B689A68BB681340BA689A420CBF012399
:10235C000023DBB21A46FB799A429BD10023184624
:10236C002037BD4680BD00BF0800002080B586B078
:10237C0002AFF860B9607A60FB685B68B3F5827F86
:10238C0011D1FB689B68B3F5004F04D0FB689B68C8
:10239C00B3F5806F07D1FB681B681A68FB681B6874
:1023AC0022F040021A60FB685B68B3F5827F17D19C
:1023BC00FB689B68B3F5806F12D17B680093BB6898
:1023CC0000220121F868FFF749FF0346002B1AD0C1
:1023DC00FB685B6D43F02002FB685A65032313E036
:1023EC007B680093BB6800228021F868FFF736FFFA
:1023FC000346002B07D0FB685B6D43F02002FB68A3
:10240C005A65032300E0002318461037BD4680BDF3
:10241C0080B586B002AFF860B9607A607B680093D3
:10242C00BB6801220221F868FFF718FF0346002B56
:10243C0007D0FB685B6D43F02002FB685A650323F1
:10244C0013E07B680093BB6800228021F868FFF7DB
:10245C0005FF0346002B07D0FB685B6D43F02002A1
:10246C00FB685A65032300E0002318461037BD466D
:10247C0080BD03460244934200D1704703F8011B10
:10248C00F9E7000070B500260C4D0D4C641BA41030
:10249C00A64209D100F01AF800260A4D0A4C641B1A
:1024AC00A410A64205D170BD55F8043B98470136DF
:1024BC00EEE755F8043B98470136F2E7242500086F
:1024CC00242500082425000828250008F8B500BF9D
:1024DC00F8BC08BC9E467047F8B500BFF8BC08BCF9
:0424EC009E46704751
:1024F000E7E7E7E7E7000000C2C2C2C2C20000008F
:1025000000000000000000000102030406070809A3
:1025100002030405060708090A0B0C0D0E0F101024
:0425200001020000B4
:042524003101000879
:042528000D01000899
:10252C00EADDCCBBAA00000000127A00100000000B
:04253C00010000009A
:0400000508000B6D77
:00000001FF
