:020000040800F2
:1000000000500020CD0B0008690B0008710B0008A0
:10001000790B0008810B0008890B00080000000024
:10002000000000000000000000000000910B00082C
:100030009D0B000800000000A90B0008B50B00088C
:10004000150C0008150C0008150C0008150C00080C
:10005000150C0008150C0008150C0008150C0008FC
:10006000150C0008150C0008150C0008150C0008EC
:10007000150C0008150C0008150C0008150C0008DC
:10008000150C0008150C0008150C0008150C0008CC
:10009000150C0008150C0008150C0008150C0008BC
:1000A000150C0008150C0008150C0008150C0008AC
:1000B000150C0008150C0008150C0008150C00089C
:1000C000150C0008150C0008150C0008150C00088C
:1000D000150C0008150C0008150C0008150C00087C
:1000E000150C0008150C0008150C00080000000095
:1000F0000000000000000000000000000000000000
:0C01000000000000000000005FF808F1A3
:10010C0010B5054C237833B9044B13B10448AFF345
:10011C0000800123237010BD14000020000000009B
:10012C008025000808B5034B1BB103490348AFF306
:10013C00008008BD00000000180000208025000889
:10014C0080B582B000AF00F061FD00F05DF800F00A
:10015C00CDF800F095F8264B264A9A60244B4FF4C4
:10016C0080629A81224B234A1A60214B4FF48052B1
:10017C009A801F4B1F4A1A611D4B4FF400629A82E2
:10018C001B4B1D4A9A611A4800F0F6F81B49184897
:10019C0000F038FA0121164800F074F900237B6056
:1001AC0007E0174A7B68134400221A707B680133FE
:1001BC007B607B68032BF4DD114B1B221A70022130
:1001CC000B4800F0CDF904220D49094800F02FFA34
:1001DC0003461A460B4B1A700A4B1B78012B03D1A2
:1001EC000121034800F0BCF9142000F071FDE3E795
:1001FC0088000020000C014030000020000000208E
:10020C00AC000020A800002080B590B000AF07F132
:10021C00180328220021184602F07FF93B1D00220A
:10022C001A605A609A60DA601A610223BB6101237A
:10023C00BB621023FB6200237B6307F11803184693
:10024C0000F0EAFF0346002B01D000F08FF80F23DB
:10025C007B600023BB600023FB6000233B61002319
:10026C007B613B1D0021184601F058FA0346002B18
:10027C0001D000F07BF800BF4037BD4680BD0000C8
:10028C0080B500AF174B184A1A60164B4FF48272A8
:10029C005A60144B00229A60124B0022DA60114B08
:1002AC0000221A610F4B00225A610E4B4FF4007260
:1002BC009A610C4B0022DA610A4B00221A62094B3C
:1002CC0000225A62074B00229A62064B0A22DA621B
:1002DC00044801F07FFB0346002B01D000F046F8E8
:1002EC0000BF80BD300000200038004080B586B0D3
:1002FC0000AF07F1080300221A605A609A60DA60B6
:10030C00184B9B69174A43F008039361154B9B6983
:10031C0003F008037B607B6800224FF4A051124865
:10032C0000F062FF4FF4A053BB600123FB6000237D
:10033C003B6102237B6107F1080319460A4800F070
:10034C00CFFD4FF40063BB600023FB6000233B61D7
:10035C0007F108031946044800F0C2FD00BF183726
:10036C00BD4680BD00100240000C014080B400AFBF
:10037C0072B600BF00BFFDE780B582B000AF7860F9
:10038C00786800F0C7F900220021786800F0F2F9D3
:10039C007B680022DA7700220121786800F0EAF904
:1003AC0000220221786800F0E5F903220321786825
:1003BC0000F0E0F900220421786800F0DBF900215C
:1003CC00786800F013F80321786800F05BF864217A
:1003DC00786800F0AFF80121786800F0C1F878680F
:1003EC0000F088F900BF0837BD4680BD80B584B0E9
:1003FC0000AF78600B46FB70786800F08BF9062133
:10040C00786800F01EFA0346FB73FB78022B1ED0B3
:10041C00022B28DC002B02D0012B0CD023E0FB7B21
:10042C0043F02003FB73FB7B23F00803FB737B6817
:10043C0000225A7718E0FB7B23F02003FB73FB7B35
:10044C0023F00803FB737B6801225A770CE0FB7BDB
:10045C0023F02003FB73FB7B43F00803FB737B68E7
:10046C0002225A7700E000BFFB7B1A46062178680F
:10047C0000F080F9786800F03DF900BF1037BD46F8
:10048C0080BD000080B584B000AF78600B46FB7077
:10049C00786800F03FF90621786800F0D2F903463D
:1004AC00FB73FB78032B37D801A252F823F000BF63
:1004BC00CD040008E5040008FD040008150500083B
:1004CC00FB7B23F00403FB73FB7B23F00203FB7326
:1004DC007B6800221A7720E0FB7B23F00403FB737C
:1004EC00FB7B43F00203FB737B6801221A7714E059
:1004FC00FB7B43F00403FB73FB7B23F00203FB73D6
:10050C007B6802221A7708E0FB7B43F00603FB733F
:10051C007B6803221A7700E000BFFB7B1A4606219A
:10052C00786800F027F9786800F0E4F800BF10371D
:10053C00BD4680BD80B582B000AF78600B46FB70C5
:10054C00786800F0E7F8FB781A460521786800F027
:10055C0011F9786800F0CEF800BF0837BD4680BDB1
:10056C0080B584B000AF78600B46FB7000217868D2
:10057C0000F067F90346FB73FB78032B37D801A215
:10058C0052F823F0A1050008B1050008C7050008C2
:10059C00E5050008FB7B23F00203FB737B6800225C
:1005AC009A7725E0786800F0B5F8FB7B43F00203FE
:1005BC00FB737B6801229A771AE0786800F09AF84E
:1005CC00FB7B43F00203FB73FB7B23F00103FB7308
:1005DC007B6802229A770BE0786800F08BF8FB7B43
:1005EC0043F00303FB737B6803229A7700E000BFA0
:1005FC00FB7B1A460021786800F0BCF800BF10376E
:10060C00BD4680BD80B582B000AF78603960786837
:10061C0000F080F805233A681021786800F0D5F8CE
:10062C00786800F067F800BF0837BD4680BD80B51C
:10063C0088B000AFF860B9601346FB710023BB753E
:10064C00F86800F077F8A023BB75FB68986907F190
:10065C0016014FF4FA63012201F040FA00BFFB6867
:10066C009B69184601F040FE0346012BF7D1FB793C
:10067C00202B08D8FB689869FB799AB24FF4FA637F
:10068C00B96801F02BFAF86800F064F80023FB77E6
:10069C0026E00023BB6103E000BFBB690133BB61F3
:1006AC00BB69C72BF8DD1721F86800F0CAF80346C0
:1006BC00FB75FB7D03F01003002B11D0FB7D03F0C9
:1006CC000803002B0CD1E123BB75BB7D1946F868E0
:1006DC0000F0E4F81721F86800F002F9012305E0B6
:1006EC00FB7F5A1CFA77092BD3D9002318462037E5
:1006FC00BD4680BD80B582B000AF78607B689868DD
:10070C007B689B890122194600F06EFD00BF0837FB
:10071C00BD4680BD80B582B000AF78607B689868BC
:10072C007B689B890022194600F05EFD00BF0837EC
:10073C00BD4680BD80B582B000AF78607B6818681C
:10074C007B689B880022194600F04EFD00BF0837DD
:10075C00BD4680BD80B582B000AF78607B681868FC
:10076C007B689B880122194600F03EFD00BF0837CC
:10077C00BD4680BD80B584B000AF78600B46FB7081
:10078C001346BB70FB7843F02003DBB23B73BB78A2
:10079C007B737868FFF7CEFF7B68986907F10C01D3
:1007AC004FF4FA63022201F099F900BF7B689B6950
:1007BC00184601F099FD0346012BF7D17868FFF735
:1007CC00C9FF00BF1037BD4680BD80B586B000AFF5
:1007DC00F8607A601A460B46FB7213463B81FB7A33
:1007EC0043F02003DBB23B75F868FFF7A3FFFB680F
:1007FC00986907F114014FF4FA63012201F06EF9C4
:10080C0000BFFB689B69184601F06EFD0346012B87
:10081C00F7D1FB6898693A894FF4FA63796801F06B
:10082C005DF900BFFB689B69184601F05DFD03464E
:10083C00012BF7D1F868FFF78DFF00BF1837BD46C5
:10084C0080BD80B584B000AF78600B46FB70002390
:10085C00FB737868FFF76EFF7B689869F91C4FF49F
:10086C00FA63012201F03AF900BF7B689B691846D4
:10087C0001F03AFD0346012BF7D17B68986907F12B
:10088C000F014FF4FA63012201F06CFA7868FFF75C
:10089C0061FFFB7B18461037BD4680BD80B582B02A
:1008AC0000AF78600B46FB707868FFF743FF7B68FE
:1008BC009869F91C4FF4FA63012201F00FF900BF9B
:1008CC007B689B69184601F00FFD0346012BF7D19D
:1008DC007868FFF73FFF00BF0837BD4680BD0000BA
:1008EC0080B588B000AF78600B46FB70FB78072BA7
:1008FC0005D1002207217868FFF73CFFA8E0FB78C0
:10090C00172B05D1112217217868FFF733FF9FE0D1
:10091C00082200217868FFF72DFF3F22012178681B
:10092C00FFF728FF032202217868FFF723FF032239
:10093C0003217868FFF71EFF032204217868FFF774
:10094C0019FF022205217868FFF714FF0E220621F9
:10095C007868FFF70FFF002207217868FFF70AFF7E
:10096C00002208217868FFF705FF0022092178682A
:10097C00FFF700FF384A07F1180392E803001860EC
:10098C000433197007F1180205230A217868FFF760
:10099C001CFF324A07F1100392E80300186004337D
:1009AC00197007F1100205230B217868FFF70DFF72
:1009BC00C3220C217868FFF7DDFEC4220D21786874
:1009CC00FFF7D8FEC5220E217868FFF7D3FEC622AA
:1009DC000F217868FFF7CEFE1F4A07F1080392E853
:1009EC00030018600433197007F108020523102165
:1009FC007868FFF7EAFE002211217868FFF7BAFE4B
:100A0C00002212217868FFF7B5FE002213217868C6
:100A1C00FFF7B0FE002214217868FFF7ABFE00222E
:100A2C0015217868FFF7A6FE002216217868FFF7DB
:100A3C00A1FE112217217868FFF79CFE00221C21D1
:100A4C007868FFF797FE00221D217868FFF792FE69
:100A5C0000BF2037BD4680BD98250008A0250008A2
:100A6C0080B485B000AF154B9B69144A43F0010369
:100A7C009361124B9B6903F00103BB60BB680F4B86
:100A8C00DB690E4A43F08053D3610C4BDB6903F0F6
:100A9C0080537B607B680A4B5B68FB60FB6823F0D0
:100AAC00E063FB60FB6843F08063FB60044AFB6817
:100ABC00536000BF1437BD4680BC70470010024025
:100ACC000000014080B588B000AF786007F11003DA
:100ADC0000221A605A609A60DA607B681B681C4AB4
:100AEC00934231D11B4BDB691A4A43F48043D361E7
:100AFC00184BDB6903F48043FB60FB68154B9B6967
:100B0C00144A43F008039361124B9B6903F00803EA
:100B1C00BB60BB684FF420433B6102237B61032322
:100B2C00FB6107F1100319460B4800F0D9F94FF49B
:100B3C0080433B6100237B610023BB6107F1100301
:100B4C001946054800F0CCF900BF2037BD4680BDE2
:100B5C000038004000100240000C014080B400AF8F
:100B6C0000BFFDE780B400AF00BFFDE780B400AF6D
:100B7C0000BFFDE780B400AF00BFFDE780B400AF5D
:100B8C0000BFFDE780B400AF00BFBD4680BC70471E
:100B9C0080B400AF00BFBD4680BC704780B400AFCE
:100BAC0000BFBD4680BC704780B500AF00F074F844
:100BBC0000BF80BD80B400AF00BFBD4680BC704795
:100BCC00FFF7F8FF0B480C490C4A002302E0D458FD
:100BDC00C4500433C4188C42F9D3094A094C00237D
:100BEC0001E013600432A242FBD301F09FFCFFF73B
:100BFC00A7FA70470000002014000020D42500083C
:100C0C0014000020B4000020FEE7000080B500AF07
:100C1C00084B1B68074A43F010031360032000F0D5
:100C2C002BF90F2000F008F8FFF71AFF00231846E5
:100C3C0080BD00BF0020024080B582B000AF78605C
:100C4C00124B1A68124B1B7819464FF47A73B3FB8C
:100C5C00F1F3B2FBF3F3184600F035F90346002B21
:100C6C0001D001230EE07B680F2B0AD80022796893
:100C7C004FF0FF3000F00BF9064A7B68136000233D
:100C8C0000E0012318460837BD4680BD080000204F
:100C9C00100000200C00002080B400AF054B1B7826
:100CAC001A46054B1B681344034A136000BFBD462C
:100CBC0080BC704710000020B000002080B400AF52
:100CCC00024B1B681846BD4680BC7047B000002024
:100CDC0080B584B000AF7860FFF7F0FFB8607B6838
:100CEC00FB60FB68B3F1FF3F05D00A4B1B781A463B
:100CFC00FB681344FB6000BFFFF7E0FF0246BB68D4
:100D0C00D31AFA689A42F7D800BF00BF1037BD4615
:100D1C0080BD00BF1000002080B485B000AF7860AB
:100D2C007B6803F00703FB600C4BDB68BB60BA68A5
:100D3C004FF6FF031340BB60FB681A02BB681343FA
:100D4C0043F0BF6343F40033BB60044ABB68D36019
:100D5C0000BF1437BD4680BC704700BF00ED00E0FB
:100D6C0080B400AF044BDB681B0A03F00703184682
:100D7C00BD4680BC704700BF00ED00E080B483B07E
:100D8C0000AF03463960FB7197F90730002B0ADB83
:100D9C003B68DAB20C4997F907301201D2B20B4416
:100DAC0083F800230AE03B68DAB20849FB7903F0C8
:100DBC000F03043B1201D2B20B441A7600BF0C375E
:100DCC00BD4680BC704700BF00E100E000ED00E0D4
:100DDC0080B489B000AFF860B9607A60FB6803F04A
:100DEC000703FB61FB69C3F10703042B28BF042332
:100DFC00BB61FB690433062B02D9FB69033B00E0A2
:100E0C0000237B614FF0FF32BB6902FA03F3DA4334
:100E1C00BB681A407B699A404FF0FF317B6901FA3D
:100E2C0003F3D9437B680B40134318462437BD4664
:100E3C0080BC704780B582B000AF78607B68013BA6
:100E4C00B3F1807F01D301230FE00A4A7B68013B99
:100E5C0053600F214FF0FF30FFF790FF054B00223E
:100E6C009A60044B07221A60002318460837BD46C7
:100E7C0080BD00BF10E000E080B582B000AF7860AC
:100E8C007868FFF749FF00BF0837BD4680BD80B5C5
:100E9C0086B000AF0346B9607A60FB7300237B61B8
:100EAC00FFF75EFF78617A68B9687869FFF790FFA1
:100EBC00024697F90F3011461846FFF75FFF00BF47
:100ECC001837BD4680BD80B582B000AF78607868B9
:100EDC00FFF7B0FF034618460837BD4680BD00003B
:100EEC0080B48BB000AF7860396000237B62002344
:100EFC003B6269E101227B6A02FA03F3FB613B6806
:100F0C001B68FA691340BB61BA69FB699A4240F0ED
:100F1C0058813B685B689A4A93425ED0984A9342E8
:100F2C0075D8984A934258D0964A93426FD8964AAD
:100F3C00934252D0944A934269D8944A93424CD0EB
:100F4C00924A934263D8924A934246D0904A934233
:100F5C005DD8122B2AD8122B59D801A252F823F0A3
:100F6C00E70F0008C10F0008D30F00081510000888
:100F7C001B1000081B1000081B1000081B10000899
:100F8C001B1000081B1000081B1000081B10000889
:100F9C001B1000081B1000081B1000081B10000879
:100FAC001B100008C90F0008DD0F0008794A934296
:100FBC0013D02CE03B68DB683B6229E03B68DB68C4
:100FCC0004333B6224E03B68DB6808333B621FE080
:100FDC003B68DB680C333B621AE03B689B68002B78
:100FEC0002D104233B6213E03B689B68012B05D1C3
:100FFC0008233B627B68FA691A6109E008233B62AB
:10100C007B68FA695A6103E000233B6200E000BF91
:10101C00BB69FF2B01D87B6801E07B6804337B61E3
:10102C00BB69FF2B02D87B6A9B0002E07B6A083B02
:10103C009B003B617B691A680F213B6901FA03F342
:10104C00DB431A40396A3B6901FA03F31A437B69A3
:10105C001A603B685B6803F08053002B00F0B18092
:10106C004D4B9B694C4A43F0010393614A4B9B697E
:10107C0003F00103BB60BB68484A7B6A9B080233E0
:10108C0052F82330FB607B6A03F003039B000F22B2
:10109C0002FA03F3DB43FA681340FB607B68404AB7
:1010AC00934213D07B683F4A93420DD07B683E4AF3
:1010BC00934207D07B683D4A934201D1032306E05B
:1010CC00042304E0022302E0012300E000237A6AF7
:1010DC0002F0030292009340FA681343FB602F491D
:1010EC007B6A9B080233FA6841F823203B685B68F3
:1010FC0003F48013002B06D02D4B9A682C49BB6946
:10110C0013438B6006E02A4B9A68BB69DB43284982
:10111C0013408B603B685B6803F40013002B06D014
:10112C00234BDA682249BB691343CB6006E0204BA2
:10113C00DA68BB69DB431E491340CB603B685B68D4
:10114C0003F40033002B06D0194B5A681849BB69BD
:10115C0013434B6006E0164B5A68BB69DB431449DA
:10116C0013404B603B685B6803F48033002B21D049
:10117C000F4B1A680E49BB6913430B6021E000BF8B
:10118C00000032100000311000002210000021106D
:10119C00000012100000111000100240000001406D
:1011AC0000080140000C01400010014000140140F7
:1011BC00000401400B4B1A68BB69DB43094913401F
:1011CC000B607B6A01337B623B681A687B6A22FA8C
:1011DC0003F3002B7FF48EAE00BF00BF2C37BD464F
:1011EC0080BC70470004014080B483B000AF7860CD
:1011FC000B467B8013467B707B78002B03D07A8860
:10120C007B681A6103E07B881A047B681A6100BF53
:10121C000C37BD4680BC704780B586B000AF786097
:10122C007B68002B01D1012372E27B681B6803F001
:10123C000103002B00F08780924B5B6803F00C03DA
:10124C00042B0CD08F4B5B6803F00C03082B12D1D2
:10125C008C4B5B6803F48033B3F5803F0BD1894B27
:10126C001B6803F40033002B6CD07B685B68002B8D
:10127C0068D101234CE27B685B68B3F5803F06D1F3
:10128C00804B1B687F4A43F4803313602EE07B68ED
:10129C005B68002B0CD17B4B1B687A4A23F48033A0
:1012AC001360784B1B68774A23F4802313601DE08E
:1012BC007B685B68B3F5A02F0CD1724B1B68714A2D
:1012CC0043F4802313606F4B1B686E4A43F48033E6
:1012DC0013600BE06B4B1B686A4A23F4803313607A
:1012EC00684B1B68674A23F4802313607B685B6838
:1012FC00002B13D0FFF7E2FC386108E0FFF7DEFCAF
:10130C0002463B69D31A642B01D9032300E25D4BDF
:10131C001B6803F40033002BF0D014E0FFF7CEFC75
:10132C00386108E0FFF7CAFC02463B69D31A642B0C
:10133C0001D90323ECE1534B1B6803F40033002B5E
:10134C00F0D100E000BF7B681B6803F00203002BA8
:10135C0063D04C4B5B6803F00C03002B0BD0494B58
:10136C005B6803F00C03082B1CD1464B5B6803F441
:10137C008033002B16D1434B1B6803F00203002B68
:10138C0005D07B681B69012B01D00123C0E13D4BCB
:10139C001B6823F0F8027B685B69DB003949134357
:1013AC000B603AE07B681B69002B20D0364B012286
:1013BC001A60FFF783FC386108E0FFF77FFC0246F8
:1013CC003B69D31A022B01D90323A1E12D4B1B68D6
:1013DC0003F00203002BF0D02A4B1B6823F0F80219
:1013EC007B685B69DB00274913430B6015E0264BD8
:1013FC0000221A60FFF762FC386108E0FFF75EFC20
:10140C0002463B69D31A022B01D9032380E11D4B01
:10141C001B6803F00203002BF0D17B681B6803F000
:10142C000803002B3AD07B689B69002B19D0174B13
:10143C0001221A60FFF742FC386108E0FFF73EFC1E
:10144C0002463B69D31A022B01D9032360E10D4BF1
:10145C005B6A03F00203002BF0D0012000F09CFA31
:10146C001CE00A4B00221A60FFF728FC38610FE0E1
:10147C00FFF724FC02463B69D31A022B08D903233D
:10148C0046E100BF0010024000004242800442428C
:10149C00924B5B6A03F00203002BE9D17B681B685B
:1014AC0003F00403002B00F0A6800023FB758B4B8C
:1014BC00DB6903F08053002B0DD1884BDB69874A25
:1014CC0043F08053D361854BDB6903F08053BB60E1
:1014DC00BB680123FB75824B1B6803F48073002BE4
:1014EC0018D17F4B1B687E4A43F480731360FFF75F
:1014FC00E5FB386108E0FFF7E1FB02463B69D31AD4
:10150C00642B01D9032303E1754B1B6803F480732F
:10151C00002BF0D07B68DB68012B06D16F4B1B6A6C
:10152C006E4A43F0010313622DE07B68DB68002BED
:10153C000CD16A4B1B6A694A23F001031362674B97
:10154C001B6A664A23F0040313621CE07B68DB68A9
:10155C00052B0CD1614B1B6A604A43F004031362E8
:10156C005E4B1B6A5D4A43F0010313620BE05B4B5D
:10157C001B6A5A4A23F001031362584B1B6A574AE1
:10158C0023F0040313627B68DB68002B15D0FFF794
:10159C0095FB38610AE0FFF791FB02463B69D31AD1
:1015AC0041F28832934201D90323B1E04B4B1B6AC1
:1015BC0003F00203002BEED014E0FFF77FFB386141
:1015CC000AE0FFF77BFB02463B69D31A41F28832F3
:1015DC00934201D903239BE0404B1B6A03F00203A7
:1015EC00002BEED1FB7D012B05D13C4BDB693B4A3B
:1015FC0023F08053D3617B68DB69002B00F087807C
:10160C00364B5B6803F00C03082B61D07B68DB69FD
:10161C00022B46D1334B00221A60FFF74FFB386187
:10162C0008E0FFF74BFB02463B69D31A022B01D9AA
:10163C0003236DE0294B1B6803F00073002BF0D1E2
:10164C007B681B6AB3F5803F08D1244B5B6823F49D
:10165C0000327B689B68214913434B601F4B5B68CE
:10166C0023F474127B68196A7B685B6A0B431B4911
:10167C0013434B601B4B01221A60FFF71FFB3861B1
:10168C0008E0FFF71BFB02463B69D31A022B01D97A
:10169C0003233DE0114B1B6803F00073002BF0D0CB
:1016AC0035E0104B00221A60FFF708FB386108E0A8
:1016BC00FFF704FB02463B69D31A022B01D9032323
:1016CC0026E0064B1B6803F00073002BF0D11EE0E4
:1016DC007B68DB69012B07D1012319E00010024064
:1016EC0000700040600042420B4B5B68FB60FB6883
:1016FC0003F480327B681B6A9A4206D1FB6803F4C0
:10170C0070127B685B6A9A4201D0012300E00023CF
:10171C0018461837BD4680BD0010024080B584B015
:10172C0000AF786039607B68002B01D10123D0E0D9
:10173C006A4B1B6803F007033A689A4210D9674B4F
:10174C001B6823F0070265493B6813430B60634B2E
:10175C001B6803F007033A689A4201D00123B8E0F2
:10176C007B681B6803F00203002B20D07B681B688E
:10177C0003F00403002B05D0594B5B68584A43F423
:10178C00E06353607B681B6803F00803002B05D0F3
:10179C00534B5B68524A43F460535360504B5B6845
:1017AC0023F0F0027B689B684D4913434B607B68C8
:1017BC001B6803F00103002B40D07B685B68012B96
:1017CC0007D1474B1B6803F40033002B15D10123C1
:1017DC007FE07B685B68022B07D1414B1B6803F0F1
:1017EC000073002B09D1012373E03D4B1B6803F000
:1017FC000203002B01D101236BE0394B5B6823F012
:10180C0003027B685B68364913434B60FFF756FA5B
:10181C00F8600AE0FFF752FA0246FB68D31A41F26D
:10182C008832934201D9032353E02D4B5B6803F0BC
:10183C000C027B685B689B009A42EBD1274B1B68C0
:10184C0003F007033A689A4210D2244B1B6823F02A
:10185C00070222493B6813430B60204B1B6803F0C3
:10186C0007033A689A4201D0012332E07B681B6877
:10187C0003F00403002B08D0194B5B6823F4E062DF
:10188C007B68DB68164913434B607B681B6803F06D
:10189C000803002B09D0124B5B6823F460527B6861
:1018AC001B69DB000E4913434B6000F021F8024624
:1018BC000B4B5B681B0903F00F030A49CB5C22FA44
:1018CC0003F3094A1360094B1B681846FFF7B4F978
:1018DC00002318461037BD4680BD00BF00200240D3
:1018EC0000100240A8250008080000200C00002071
:1018FC0080B487B000AF0023FB600023BB600023E3
:10190C007B6100237B6000233B611E4B5B68FB60AB
:10191C00FB6803F00C03042B02D0082B03D027E048
:10192C00194B3B6127E0FB689B0C03F00F03174A34
:10193C00D35C7B60FB6803F48033002B10D0114B1D
:10194C005B685B0C03F00103114AD35CBB607B68E2
:10195C000D4A03FB02F2BB68B2FBF3F37B6104E0BC
:10196C007B680C4A02FB03F37B617B693B6102E001
:10197C00054B3B6100BF3B6918461C37BD4680BC1C
:10198C00704700BF0010024000127A00B825000812
:10199C00C825000800093D0080B485B000AF786010
:1019AC000A4B1B680A4AA2FB03235B0A7A6802FBF8
:1019BC0003F3FB6000BFFB685A1EFA60002BF9D1E1
:1019CC0000BF00BF1437BD4680BC70470800002024
:1019DC00D34D621080B582B000AF78607B68002B6D
:1019EC0001D1012376E07B685B6A002B08D17B6810
:1019FC005B68B3F5827F09D07B680022DA6105E071
:101A0C007B6800221A617B6800225A617B68002285
:101A1C009A627B6893F85130DBB2002B06D17B685D
:101A2C00002283F850207868FFF74CF87B6802227C
:101A3C0083F851207B681B681A687B681B6822F04E
:101A4C0040021A607B685B6803F482727B689B6857
:101A5C0003F404431A437B68DB6803F400631A4302
:101A6C007B681B6903F002031A437B685B6903F014
:101A7C0001031A437B689B6903F400731A437B6868
:101A8C00DB6903F038031A437B681B6A03F080039D
:101A9C0042EA03017B689B6A03F400527B681B6873
:101AAC000A431A607B689B691A0C7B681B6802F0FE
:101ABC0004025A607B681B68DA697B681B6822F435
:101ACC000062DA617B6800225A657B68012283F828
:101ADC005120002318460837BD4680BD80B588B01C
:101AEC0000AFF860B9603B601346FB80FFF7E6F887
:101AFC00F861FB887B83FB6893F85130DBB2012BD8
:101B0C0001D002232AE1BB68002B02D0FB88002BFA
:101B1C0001D1012322E1FB6893F85030012B01D154
:101B2C0002231BE1FB68012283F85020FB6803228F
:101B3C0083F85120FB6800225A65FB68BA681A6367
:101B4C00FB68FA889A86FB68FA88DA86FB680022BA
:101B5C009A63FB6800229A87FB680022DA87FB688D
:101B6C0000225A64FB6800221A64FB689B68B3F578
:101B7C00004F0FD1FB681B681A68FB681B6822F0CA
:101B8C0040021A60FB681B681A68FB681B6842F409
:101B9C0080421A60FB681B681B6803F04003402BF3
:101BAC0007D0FB681B681A68FB681B6842F0400290
:101BBC001A60FB68DB68B3F5006F52D1FB685B6899
:101BCC00002B02D07B8B012B45D1FB681B6B1A8839
:101BDC00FB681B68DA60FB681B6B9A1CFB681A635A
:101BEC00FB68DB8E9BB2013B9AB2FB68DA8632E073
:101BFC00FB681B689B6803F00203022B12D1FB6885
:101C0C001B6B1A88FB681B68DA60FB681B6B9A1CE1
:101C1C00FB681A63FB68DB8E9BB2013B9AB2FB68D4
:101C2C00DA8618E0FFF74AF80246FB69D31A3A68DD
:101C3C009A4203D83B68B3F1FF3F02D13B68002BBB
:101C4C0009D1FB68012283F85120FB68002283F83C
:101C5C005020032382E0FB68DB8E9BB2002BC7D1A4
:101C6C0053E0FB685B68002B02D07B8B012B47D1C8
:101C7C00FB681A6BFB681B680C3312781A70FB68D4
:101C8C001B6B5A1CFB681A63FB68DB8E9BB2013B17
:101C9C009AB2FB68DA8633E0FB681B689B6803F03A
:101CAC000203022B13D1FB681A6BFB681B680C3305
:101CBC0012781A70FB681B6B5A1CFB681A63FB6862
:101CCC00DB8E9BB2013B9AB2FB68DA8618E0FEF71A
:101CDC00F5FF0246FB69D31A3A689A4203D83B686F
:101CEC00B3F1FF3F02D13B68002B09D1FB68012205
:101CFC0083F85120FB68002283F8502003232DE049
:101D0C00FB68DB8E9BB2002BC6D1FA693968F86888
:101D1C0000F0D2FB0346002B02D0FB6820225A6550
:101D2C00FB689B68002B0AD100237B61FB681B6856
:101D3C00DB687B61FB681B689B687B617B69FB686C
:101D4C00012283F85120FB68002283F85020FB68A5
:101D5C005B6D002B01D0012300E0002318462037D7
:101D6C00BD4680BD80B588B002AFF860B9603B60FD
:101D7C001346FB80FB6893F85130DBB2012B01D08A
:101D8C00022304E1FB685B68B3F5827F12D1FB6828
:101D9C009B68002B0ED1FB68042283F85120FA8833
:101DAC003B6800931346BA68B968F86800F0F3F81A
:101DBC000346ECE0FEF782FF7861BB68002B02D093
:101DCC00FB88002B01D10123E1E0FB6893F8503034
:101DDC00012B01D10223DAE0FB68012283F85020A9
:101DEC00FB68042283F85120FB6800225A65FB68CB
:101DFC00BA689A63FB68FA889A87FB68FA88DA876C
:101E0C00FB6800221A63FB6800229A86FB6800229A
:101E1C00DA86FB6800221A64FB6800225A64FB68AD
:101E2C009B68B3F5004F0FD1FB681B681A68FB6801
:101E3C001B6822F040021A60FB681B681A68FB687A
:101E4C001B6822F480421A60FB681B681B6803F055
:101E5C004003402B07D0FB681B681A68FB681B68A3
:101E6C0042F040021A60FB68DB68002B70D135E051
:101E7C00FB681B689B6803F00103012B15D1FB6801
:101E8C001B6803F10C02FB689B6B1278D2B21A70C0
:101E9C00FB689B6B5A1CFB689A63FB68DB8F9BB2DD
:101EAC00013B9AB2FB68DA8718E0FEF707FF02469F
:101EBC007B69D31A3A689A4203D83B68B3F1FF3F67
:101ECC0002D13B68002B09D1FB68012283F8512019
:101EDC00FB68002283F85020032358E0FB68DB8F5B
:101EEC009BB2002BC4D138E0FB681B689B6803F0E5
:101EFC000103012B13D1FB681B68DA68FB689B6B31
:101F0C0092B21A80FB689B6B9A1CFB689A63FB6805
:101F1C00DB8F9BB2013B9AB2FB68DA8718E0FEF7C5
:101F2C00CDFE02467B69D31A3A689A4203D83B68C5
:101F3C00B3F1FF3F02D13B68002B09D1FB680122B2
:101F4C0083F85120FB68002283F8502003231EE005
:101F5C00FB68DB8F9BB2002BC6D17A693968F868B5
:101F6C0000F058FA0346002B02D0FB6820225A6579
:101F7C00FB68012283F85120FB68002283F8502073
:101F8C00FB685B6D002B01D0012300E00023184699
:101F9C001837BD4680BD80B58AB000AFF860B96017
:101FAC007A607B8001237B62FEF788FE3862FB68D7
:101FBC0093F85130FB77FB685B68BB617B88FB82D5
:101FCC00FB7F012B0CD0BB69B3F5827F06D1FB687C
:101FDC009B68002B02D1FB7F042B01D002237FE1F5
:101FEC00BB68002B05D07B68002B02D07B88002BB4
:101FFC0001D1012374E1FB6893F85030012B01D11E
:10200C0002236DE1FB68012283F85020FB6893F8F2
:10201C005130DBB2042B03D0FB68052283F851202E
:10202C00FB6800225A65FB687A689A63FB687A88B9
:10203C00DA87FB687A889A87FB68BA681A63FB6848
:10204C007A88DA86FB687A889A86FB6800221A649A
:10205C00FB6800225A64FB681B681B6803F0400392
:10206C00402B07D0FB681B681A68FB681B6842F0A2
:10207C0040021A60FB68DB68B3F5006F7ED1FB6829
:10208C005B68002B02D0FB8A012B6CD1FB681B6BAD
:10209C001A88FB681B68DA60FB681B6B9A1CFB6870
:1020AC001A63FB68DB8E9BB2013B9AB2FB68DA8643
:1020BC0059E0FB681B689B6803F00203022B1BD1E1
:1020CC00FB68DB8E9BB2002B16D07B6A012B13D1E5
:1020DC00FB681B6B1A88FB681B68DA60FB681B6B60
:1020EC009A1CFB681A63FB68DB8E9BB2013B9AB2AD
:1020FC00FB68DA8600237B62FB681B689B6803F035
:10210C000103012B19D1FB68DB8F9BB2002B14D080
:10211C00FB681B68DA68FB689B6B92B21A80FB68E1
:10212C009B6B9A1CFB689A63FB68DB8F9BB2013B31
:10213C009AB2FB68DA8701237B62FEF7BFFD024689
:10214C003B6AD31A3A6B9A420DD83B6BB3F1FF3F03
:10215C0009D0FB68012283F85120FB68002283F828
:10216C0050200323BCE0FB68DB8E9BB2002BA0D17C
:10217C00FB68DB8F9BB2002B9BD182E0FB685B681A
:10218C00002B02D0FB8A012B71D1FB681A6BFB6808
:10219C001B680C3312781A70FB681B6B5A1CFB689B
:1021AC001A63FB68DB8E9BB2013B9AB2FB68DA8642
:1021BC005DE0FB681B689B6803F00203022B1CD1DB
:1021CC00FB68DB8E9BB2002B17D07B6A012B14D1E2
:1021DC00FB681A6BFB681B680C3312781A70FB686F
:1021EC001B6B5A1CFB681A63FB68DB8E9BB2013BB2
:1021FC009AB2FB68DA8600237B62FB681B689B68DB
:10220C0003F00103012B19D1FB68DB8F9BB2002B70
:10221C0014D0FB681B68DA68FB689B6BD2B21A702F
:10222C00FB689B6B5A1CFB689A63FB68DB8F9BB249
:10223C00013B9AB2FB68DA8701237B62FEF73EFD15
:10224C0002463B6AD31A3A6B9A4203D83B6BB3F102
:10225C00FF3F02D13B6B002B09D1FB68012283F8B5
:10226C005120FB68002283F85020032338E0FB68E0
:10227C00DB8E9BB2002B9CD1FB68DB8F9BB2002BBF
:10228C0097D13A6A396BF86800F016F90346002BBF
:10229C0008D0FB6820225A65FB68002283F8502086
:1022AC0001231DE0FB689B68002B0AD100233B61D6
:1022BC00FB681B68DB683B61FB681B689B683B61C8
:1022CC003B69FB68012283F85120FB68002283F8EC
:1022DC005020FB685B6D002B01D0012300E0002334
:1022EC0018462837BD4680BD80B483B000AF7860F7
:1022FC007B6893F85130DBB218460C37BD4680BC76
:10230C007047000080B588B000AFF860B9603B60E2
:10231C001346FB71FEF7D2FC0246BB6A9B1A3A6865
:10232C001344FB61FEF7CAFCB861394B1B685B01B7
:10233C001B0DFA6902FB03F37B6154E03B68B3F1BC
:10234C00FF3F50D0FEF7BAFC0246BB69D31AFA69BC
:10235C009A4202D9FB69002B3DD1FB681B685A6875
:10236C00FB681B6822F0E0025A60FB685B68B3F5FF
:10237C00827F11D1FB689B68B3F5004F04D0FB68DA
:10238C009B68B3F5806F07D1FB681B681A68FB6804
:10239C001B6822F040021A60FB689B6AB3F5005F71
:1023AC000FD1FB681B681A68FB681B6822F400528B
:1023BC001A60FB681B681A68FB681B6842F40052C1
:1023CC001A60FB68012283F85120FB68002283F815
:1023DC005020032317E07B69002B01D10023FB6104
:1023EC007B69013B7B61FB681B689A68BB68134087
:1023FC00BA689A420CBF01230023DBB21A46FB7960
:10240C009A429BD1002318462037BD4680BD00BFA1
:10241C000800002080B586B002AFF860B9607A6021
:10242C00FB685B68B3F5827F11D1FB689B68B3F5E1
:10243C00004F04D0FB689B68B3F5806F07D1FB6835
:10244C001B681A68FB681B6822F040021A60FB6864
:10245C005B68B3F5827F17D1FB689B68B3F5806F1F
:10246C0012D17B680093BB6800220121F868FFF74A
:10247C0049FF0346002B1AD0FB685B6D43F020022A
:10248C00FB685A65032313E07B680093BB6800224A
:10249C008021F868FFF736FF0346002B07D0FB6856
:1024AC005B6D43F02002FB685A65032300E00023B8
:1024BC0018461037BD4680BD80B586B002AFF860B7
:1024CC00B9607A607B680093BB6801220221F868CE
:1024DC00FFF718FF0346002B07D0FB685B6D43F03A
:1024EC002002FB685A65032313E07B680093BB68EA
:1024FC0000228021F868FFF705FF0346002B07D068
:10250C00FB685B6D43F02002FB685A65032300E017
:10251C00002318461037BD4680BD03460244934243
:10252C0000D1704703F8011BF9E7000070B50026D5
:10253C000C4D0D4C641BA410A64209D100F01AF8E6
:10254C0000260A4D0A4C641BA410A64205D170BD8E
:10255C0055F8043B98470136EEE755F8043B98478D
:10256C000136F2E7CC250008CC250008CC25000864
:10257C00D0250008F8B500BFF8BC08BC9E467047D3
:0C258C00F8B500BFF8BC08BC9E467047C4
:10259800E7E7E7E7E7000000C2C2C2C2C2000000E6
:1025A80000000000000000000102030406070809FB
:1025B80002030405060708090A0B0C0D0E0F10107C
:0425C800010200000C
:0425CC0031010008D1
:0425D0000D010008F1
:1025D400EADDCCBBAA00000000127A001000000063
:0425E40001000000F2
:0400000508000BCD17
:00000001FF
